S011000050726F796563746F322E737265638C
S11300000C9434000C9451000C9451000C94510045
S11300100C9451000C9451000C9451000C94510018
S11300200C9451000C9451000C9451000C94510008
S11300300C9451000C9451000C9413060C94510030
S11300400C9451000C9451000C94E9060C9451004A
S11300500C9451000C9451000C9451000C945100D8
S11300600C9451000C94510011241FBECFEFD8E022
S1130070DEBFCDBF15E0A0E0B1E0E0EEFFE002C0DE
S113008005900D92A233B107D9F725E0A2E3B5E0BC
S113009001C01D92AD39B207E1F70E9432050C94FC
S11300A0EE070C94000080E480937C0087E8809342
S11300B07A008FE080937E00089587708064809337
S11300C07C00EAE7F0E080818064808380917A009C
S11300D086FDFCCF809178009091790008959C0171
S11300E0AFEFB0E00E943B072FEF33E040E050E079
S11300F00E941907822F0895843008F080E090E070
S1130100880F991F880F991F880F991F0895CF93FF
S1130110DF93EB010E947C0048E050E0BC01CE017B
S11301200E94CC07DF91CF910895CF93DF93EB0129
S11301300E947C0048E050E0BC01CE010E94BC0754
S1130140DF91CF91089584B1806284B985B18F7DA8
S113015085B9089580913305909134050196909363
S113016034058093330520915605211104C085B1CF
S1130170806285B90895213059F4499798F095B172
S113018080E2892785B910923405109233050895C9
S1130190089740F095B180E2892785B9109234051B
S11301A0109233050895CF93DF93EC018A819B81EC
S11301B090930501809304012C813D8130930301C8
S11301C0209302012E813F8130930101209300018D
S11301D00E94B70580910201909103010E94C0051D
S11301E080910001909101010E94EE058981813086
S11301F021F488810E94820508C0823021F488811C
S11302000E94930502C00E946805DF91CF91089572
S1130210CF93DF93EC010E94A40588830E94A70575
S1130220898380910401909105019B838A83809145
S11302300201909103019D838C8380910001909130
S113024001019F838E83DF91CF91089587E091E030
S11302500E9486068DE191E00E94860683E491E087
S11302600E94860687E691E00E94860684E891E073
S11302700E94860682EA91E00E94860687EC91E05D
S11302800E9486068AEE91E00E9486068AE092E049
S11302900E94860680E392E00E94860683E592E04F
S11302A00E94860689E792E00E94860688E992E029
S11302B00E94860685EC92E00E94860689EE92E012
S11302C00E94860608958AE093E00E94790680E001
S11302D00E945D000E948D0685E193E00E947906EC
S11302E088E193E00E94790681E00E945D000E940B
S11302F08D0685E193E00E94790681E293E00E94F5
S1130300790682E00E945D000E948D0685E193E0FB
S11303100E94790681E393E00E94790683E00E94BB
S11303205D000E948D0685E193E00E9479060895A0
S11303301F93CF93DF93CDB7DEB728970FB6F8940A
S1130340DEBF0FBECDBF81E493E00E94860610E0BD
S113035024C0BE016F5F7F4F812F0E949500CE01A4
S113036001960E94D30081E693E00E947906812FD2
S11303700E94AA0685E193E00E94790680E00AC003
S11303802FEF39EF90E0215030409040E1F700C06A
S113039000008F5F8233A0F31F5F1430D0F20E94FD
S11303A0680587E693E00E94860628960FB6F894BF
S11303B0DEBF0FBECDBFDF91CF911F91089584E3BF
S11303C098E0909303018093020184E893E0909372
S11303D001018093000184E398E00E94C0058091AC
S11303E00001909101010E94EE0580E793E00E94D4
S11303F08606089580E699E09093030180930201B4
S113040088E592E0909301018093000180E699E0F1
S11304100E94C00580910001909101010E94EE05A7
S113042081E893E00E948606089582E993E00E94A1
S113043086060E94FA0180E00AC02FEF39EF90E0AF
S1130440215030409040E1F700C000008F5F8E31B2
S1130450A0F30E94DF0180E00AC02FEF39EF90E0A3
S1130460215030409040E1F700C000008F5F883297
S1130470A0F30E94FA0180E00AC02FEF39EF90E068
S1130480215030409040E1F700C000008F5F883277
S1130490A0F38CEB92E090930501809304010E94F9
S11304A0B70580E00AC02FEF39EF90E021503040CB
S11304B09040E1F700C000008F5F8E31A0F380ED23
S11304C097E090930501809304010E94B70580E0B2
S11304D00AC02FEF39EF90E0215030409040E1F70F
S11304E000C000008F5F8E31A0F386E495E00E9487
S11304F0B70586E495E0909305018093040186E9AD
S11305000E94820580E00AC02FEF39EF90E021506D
S113051030409040E1F700C000008F5F8C33A0F3BF
S11305200E94680581EA93E00E9486060895853B4F
S113053008F084EB282F30E0A8E0B7E00E943B07E6
S113054024EB30E040E050E00E941907C901885ACA
S11305509D4F0895CF93DF93EB014617570780F023
S1130560DA01A61BB70B9C010E943B072FEF33E077
S113057040E050E00E941907CE01820F931F0FC084
S1130580DB01A41BB50B9C010E943B072FEF33E05A
S113059040E050E00E941907CE01821B930BDF91CB
S11305A0CF910895CF92DF92EF92FF920F931F9312
S11305B0CF93DF9380E00E945D008C0181E00E9474
S11305C05D00EC0182E00E945D006C0183E00E940A
S11305D05D007C01C8010E946F00182F40ED57E0B8
S11305E06CEB72E0CE010E94AA02EC01909305012B
S11305F08093040144E358E060E679E0C6010E9478
S1130600AA02909303018093020144E853E068E551
S113061072E0C7010E94AA02909301018093000135
S1130620CE010E94B70580910201909103010E94BE
S1130630C00580910001909101010E94EE051931DD
S113064018F40E94680503C0812F0E948205DF917F
S1130650CF911F910F91FF90EF90DF90CF9008956D
S1130660641718F0962F642F492F861720F0481727
S113067018F4842F0895862F0895CF93C62F6CE223
S113068070E00E946807009771F001960E944A0783
S1130690992314F480E090E08F3F910529F024F031
S11306A08FEF90E001C08C2FCF9108950F931F938B
S11306B0CF93DF93CDB7DEB728970FB6F894DEBF9C
S11306C00FBECDBF8C016AEA73E00E947307892BC9
S11306D019F40E94260154C161EE73E0C8010E941E
S11306E07307892B39F064EB73E0C8010E94730728
S11306F0892B39F4109256058FEA93E00E948606FE
S11307003FC16BEB73E0C8010E947307892B71F042
S11307106DEB73E0C8010E947307892B39F062EC1A
S113072073E0C8010E947307892B41F482E080932F
S1130730560584EC93E00E94860622C16DE074E0C5
S1130740C8010E947307892B39F06CED73E0C8016E
S11307500E947307892B41F481E08093560587ED4D
S113076093E00E9486060CC163EE73E0C8010E9408
S11307707307892B19F40E94630102C144E050E01D
S113078068EE73E0C8010E947C07892BF9F4F80134
S113079084818033D8F08433C8F4CE0101960E945A
S11307A00801F8018481BE016F5F7F4F80530E946E
S11307B087008DEE93E00E947906F80184810E94FF
S11307C0720685E193E00E947906DAC06BE673E075
S11307D0C8010E947307892B31F481E08093560588
S11307E00E949801CDC065EA73E0C8010E947307B6
S11307F0892B31F482E0809356050E941502C0C013
S113080064E074E0C8010E947307892B31F482E02C
S1130810809356050E94DF01B3C069E074E0C8010B
S11308200E947307892B31F482E0809356050E945D
S1130830FA01A6C042E050E06FE074E0C8010E94F3
S11308407C07892B71F482E08093560560EAC80125
S11308500E943D030E94820582E194E00E94860684
S11308608FC042E050E060E274E0C8010E947C075F
S1130870892B71F482E08093560560EAC8010E94D6
S11308803D030E94930583E294E00E94860678C0AB
S113089061E374E0C8010E947307892B51F482E07C
S11308A0809356050E94680586E394E00E948606BC
S11308B067C044E050E061E474E0C8010E947C0732
S11308C0892BC1F482E0809356056BE4C8010E9431
S11308D03D034CE86AE00E9430030E949702909323
S11308E00501809304010E94B70586E494E00E9408
S11308F0860646C046E050E06CE574E0C8010E94FC
S11309007C07892BC1F482E08093560564EBC8010F
S11309100E943D0344EB66E90E9430030E94970263
S113092090930301809302010E94C00583E694E042
S11309300E94860625C046E050E060E874E0C801E5
S11309400E947C07892BC1F482E08093560560E005
S1130950C8010E943D034EE160E00E9430030E9402
S1130960970290930101809300010E94EE0587E8AD
S113097094E00E94860604C082EA94E00E948606FF
S113098028960FB6F894DEBF0FBECDBFDF91CF918E
S11309901F910F910895CF93C0E03FC00E94CD06F0
S11309A010923205883011F08F3761F4809135054B
S11309B0882391F18150809335058FEB94E00E9458
S11309C079062AC08D3011F08A3099F485E193E0DC
S11309D00E947906E0913505EE23F1F0F0E0EA5C3F
S11309E0FA4F108286E395E00E9456031092350573
S11309F013C09FE9980F9A3108F48052E0913505AD
S1130A00EF3150F491E09E0F90933505F0E0EA5CED
S1130A10FA4F80830E947206C1E00E94C4068111CD
S1130A20BDCFC1111DC0809135058823C9F08091C7
S1130A3032058F5F809332058F3090F085E193E02B
S1130A400E947906E0913505F0E0EA5CFA4F1082E5
S1130A5086E395E00E945603109235051092320504
S1130A60CF9108950E94A3000E94530060E875E2AC
S1130A7080E090E00E944B060E94C9050E94FE059A
S1130A800E947405789483EC94E00E94860681EEBB
S1130A9094E00E94860686E195E00E9486060E9404
S1130AA0CB0480915605811102C00E94D2020E949B
S1130AB0AA002FEF89EF90E0215080409040E1F7A9
S1130AC000C00000ECCF809358058093B4000895D3
S1130AD08BB18F7E8BB98BB18F7D8BB910925705FB
S1130AE080E00E94630508958AB188638AB983E22D
S1130AF08093B00084E08093B1001092B4000E940F
S1130B0068050895893118F40E94680508959BB119
S1130B1090619BB99BB19F7D9BB991E090935705E0
S1130B200E9463050895893118F40E9468050895A8
S1130B309BB19F7E9BB99BB190629BB992E09093CD
S1130B4057050E9463050895809158050895809182
S1130B5057050895883522E0920710F488E592E05D
S1130B60813629E0920710F080E699E008950E940A
S1130B70AA05880F991F909389008093880008958F
S1130B800E94AA05880F991F90938B0080938A0076
S1130B90089584B1866084B982EA809380008AE1F2
S1130BA0809381008FE39CE9909387008093860073
S1130BB08CED95E00E94B7058CED95E00E94C00590
S1130BC00895883522E0920710F488E592E0813692
S1130BD029E0920710F080E699E008950E94E1056B
S1130BE09C01ADECBCEC0E943B07929582958F7002
S1130BF089279F7089278093060108958AB18064AC
S1130C008AB98BB18F7B8BB982E084BD85BD87E2C5
S1130C1087BDEEE6F0E08081826080838CED95E014
S1130C200E94EE0508951F920F920FB60F921124A1
S1130C302F933F938F939F938091590590915A05D9
S1130C40892B19F48BB180648BB9809159059091EB
S1130C505A05019690935A058093590520910601EF
S1130C6030E08217930718F08BB18F7B8BB980919A
S1130C70590590915A05883E934020F010925A05E8
S1130C80109259059F918F913F912F910F900FBE14
S1130C900F901F901895DC01CB01880F991FAA1F94
S1130CA0BB1F880F991FAA1FBB1F9C01AD01220FF8
S1130CB0331F441F551F220F331F441F551F60E06D
S1130CC074E284EF90E00E941907215031093093B7
S1130CD0C5002093C40088E98093C10086E0809316
S1130CE0C20008959091C00095FFFCCF8093C60088
S1130CF00895CF93DF93EC0103C021960E947206FE
S1130D0088818111FACFDF91CF9108950E947906ED
S1130D1085E193E00E9479060895CF93DF93CDB7E0
S1130D20DEB728970FB6F894DEBF0FBECDBF4AE0FA
S1130D30BE016F5F7F4F0E949207CE0101960E9411
S1130D40790628960FB6F894DEBF0FBECDBFDF91AB
S1130D50CF910895CF93DF9300D000D01F92CDB7E9
S1130D60DEB74AE0BE016F5F7F4F90E00E949207BA
S1130D70CE0101960E9479060F900F900F900F906C
S1130D800F90DF91CF91089520915C0590915B05C0
S1130D9081E0291301C080E008950E94C4068823DD
S1130DA0E1F3E0915B05F0E0E35AFA4F8081209192
S1130DB05B0530E02F5F3F4F2F733078332334F4DB
S1130DC021503109206C3F6F2F5F3F4F20935B050B
S1130DD008951F920F920FB60F9211242F933F93F1
S1130DE08F939F93EF93FF933091C60080915C059E
S1130DF090E001968F739078992324F40197806C86
S1130E009F6F019620915B05281741F0E0915C05E6
S1130E10F0E0E35AFA4F308380935C05FF91EF9141
S1130E209F918F913F912F910F900FBE0F901F9024
S1130E301895A1E21A2EAA1BBB1BFD010DC0AA1F07
S1130E40BB1FEE1FFF1FA217B307E407F50720F02F
S1130E50A21BB30BE40BF50B661F771F881F991FAA
S1130E601A9469F760957095809590959B01AC01F3
S1130E70BD01CF010895A29FB001B39FC001A39FFC
S1130E80700D811D1124911DB29F700D811D1124BF
S1130E90911D0895FC0188279927E8942191203217
S1130EA0E9F3293010F02E30C8F32B3241F02D3203
S1130EB039F4689404C00E948A07820F911D21911D
S1130EC020532A30C0F31EF4909581959F4F0895C6
S1130ED0FC018191861721F08823D9F79927089579
S1130EE03197CF010895FB01DC018D9101908019A8
S1130EF00110D9F3990B0895FB01DC0141505040D6
S1130F0030F08D910190801919F40020B9F7881BF5
S1130F10990B08957AE0979F902D879F802D910DCE
S1130F2011240895BB27FB015527AA27880F991F71
S1130F30AA1FA41710F0A41B83955051B9F7A05D04
S1130F40AA3308F0A95DA193009779F7B111B19381
S1130F501192CB010C94AC07DC01FC01672F719159
S1130F607723E1F7329704C07C916D93708362918B
S1130F70AE17BF07C8F30895DC01CB01FC01F99952
S1130F80FECF06C0F2BDE1BDF89A319600B40D92D1
S1130F9041505040B8F70895DC01A40FB51F4150EB
S1130FA0504048F0CB01840F951F2E910E94DD071D
S1130FB041505040D0F70895262FF999FECF92BDA5
S1130FC081BDF89A019700B4021639F01FBA20BD0A
S1130FD00FB6F894FA9AF99A0FBE0895F894FFCFD1
S1130FE05802600946054B436F6D616E646F732050
S1130FF0646973706F6E69626C65733A004D202F7B
S1131000204D414E55414C202020202D3E206D6F17
S1131010646F206D616E75616C20636F6E20706FFC
S113102074730055202F2055415254202020202035
S1131030202D3E206D6F646F20554152542F416422
S11310406166727569740045202F20454550524FE2
S11310504D202020202D3E206D6F646F204545508B
S1131060524F4D00504F5453202020202020202048
S113107020202D3E20696D7072696D697220414493
S1131080430053415645302E2E53415645332020BC
S11310902D3E206775617264617220706F736520E4
S11310A061637475616C00504C41592020202020EC
S11310B020202020202D3E20726570726F6475639D
S11310C0697220454550524F4D00534551312020FF
S11310D020202020202020202D3E2073656375656C
S11310E06E6369612064656D6F004F50454E202F1B
S11310F020434C4F534520202D3E2061627269727B
S11311002F63657272617220707565727461730009
S1131110462C76656C2020202020202020202D3E87
S1131120206176616E7A61722076656C20302D3292
S1131130353500422C76656C20202020202020208C
S1131140202D3E20726574726F636564657220762B
S1131150656C20302D3235350053544F50202020FB
S1131160202020202020202D3E20646574656E659B
S113117072206D6F746F72004449522C616E672047
S11311802020202020202D3E20646972656363693D
S11311906F6E2031302D3134302C2063656E7472C3
S11311A06F203735004C444F4F522C616E6720201E
S11311B02020202D3E2070756572746120697A713B
S11311C0203135302D3138300052444F4F522C618C
S11311D06E6720202020202D3E207075657274617A
S11311E02064657220302D3330004130206D6F74DF
S11311F06F723A20000D0A004131206469723A206E
S11312000041322070756572746120697A713A20E8
S113121000413320707565727461206465723A20F0
S113122000526570726F64756369656E646F203413
S113123020706F73657320454550524F4D2E2E2EEE
S113124000506F7365200046696E20504C41590070
S1131250507565727461732061626965727461733B
S113126000507565727461732063657272616461A4
S1131270730053656375656E6369612064656D6FA2
S11312800046696E20534551310048454C50004D8D
S11312906F646F204D414E55414C005500554152ED
S11312A0540041004D6F646F20554152542F4164E6
S11312B0616672756974004D6F646F2045455052C4
S11312C04F4D00504F5453005341564500506F73D7
S11312D06520677561726461646120656E20736C5A
S11312E06F7420004F50454E00434C4F5345004609
S11312F02C004D6F746F7220666F72776172640098
S1131300422C004D6F746F7220726576657273653E
S11313100053544F50004D6F746F722073746F708C
S1131320004449522C00446972656363696F6E20FE
S113133061637475616C697A616461004C444F4FF8
S1131340522C0050756572746120697A71756965F3
S11313507264612061637475616C697A61646100AF
S113136052444F4F522C005075657274612064656D
S113137072656368612061637475616C697A616424
S11313806100436F6D616E646F206E6F2076616CD7
S113139069646F2E205573652048454C502E000813
S11313A02008004669726D776172652066696E6116
S11313B06C202D20636172726F20494532303233C4
S11313C000536572766F732044392F443130207096
S11313D06F722054696D657231202B2073657276AB
S11313E06F20443620706F7220736F667477617259
S11313F0652050574D00457363726962612048450A
S11314004C50207061726120636F6D616E646F7304
S10514102E00A8
S9030000FC
